:0400000084EF03F096
:1000080000C015F0F2A20ED03C0E296E010E2A6E29
:10001800CD909E901E6AC20ED76EF70ED66EF294E1
:10002800D58EF292F0A00ED00A0E296E010E2A6E1D
:100038001E6AD59EF2940B0ECF6EDC0ECE6E9E908D
:10004800CD80F090F2A412D0F294C20ED76EF70EC3
:10005800D66E2950000806E22904006E00C029F077
:10006800010E2A6E2950000AD8B4D59E9EA01BD036
:100078009E900B0ECF6EDC0ECE6E1E50010F006EE2
:1000880000C01EF0040E1E5C0EE31E6A2950000814
:1000980006E22904006E00C029F0010E2A6E2950DC
:0C00A800000AD8B4CD9015C000F0110083
:0A00B400210E0D6E0D2EFED7120076
:1000BE000F0E0C6E470E0D6E0D2EFED70C2EFCD7AE
:0600CE000000000012001A
:0600D40000000000120014
:1000DA004ABE02D08C9601D08C864ABC02D08C943F
:1000EA0001D08C844ABA02D08C9201D08C824AB850
:1000FA0002D08C9001D08C802DB002D08C8801D097
:10010A008C988C8AE2DF8C9A4AB602D08C9601D0FF
:10011A008C864AB402D08C9401D08C844AB202D024
:10012A008C9201D08C824AB002D08C9001D08C8003
:10013A002DB002D08C8801D08C988C8AC6DF8C9A1C
:0C014A002DA002D0B7DF01D0B0DF120002
:0C0156000E0E0D6E0D2EFED700001200E4
:0C0162002D9049C04AF0B8DF2D8012003B
:10016E00086A080E0C6E003408360450085ED8B0CB
:0E017E0002D00826D89000360C2EF5D71200BD
:10018C00220E0C6E086A096A0A6A0B6A0C06D8B44D
:10019C001FD0D8900B320A320932083203320232A5
:1001AC0001320032D8A0F2D70C06D8B409D00450D2
:1001BC0008260550092206500A2207500B22EAD7BE
:1001CC00045008260550092206500A2207500B221B
:0201DC0012000F
:1001DE000FD0800E436E19D0C00E436E16D0940E03
:1001EE00436E13D0D40E436E10D0800E436E0DD0DE
:1001FE004350010AEEE04350020AEEE04350030A78
:10020E00EEE04350040AEEE0F0D74404006E435093
:10021E00002600C043F02D8000C04AF057DF2D901D
:0A022E0045C04AF053DF2D80120096
:100238000FD0800E436E19D0C00E436E16D0940EA8
:10024800436E13D0D40E436E10D0800E436E0DD083
:100258004350010AEEE04350020AEEE04350030A1D
:10026800EEE04350040AEEE0F0D74404006E435039
:10027800002600C043F000C04AF02BDF2D90476AEB
:1002880047504524E96E000E4620EA6EEE520BE018
:1002980047504524E96E000E4620EA6EEECF49F03D
:0A02A8005CDF472AEDD72D8012001D
:1002B200959A959895909592959495968C9A8C98F6
:1002C2008C968C948C928C90F9DEF8DEF7DE8C8220
:1002D2008C808C8AFEDE8C9AF1DE8C8AFADE8C9A15
:1002E200EDDE8C8AF6DE8C9AE9DE8C908C8AF1DE69
:1002F2008C9AE4DE8C8AEDDE8C9A8C928C868C8AC7
:10030200E8DE8C9ADBDE8C968C808C8AE2DE8C9A1C
:100312008C908C8ADEDE8C9AD1DE8C8ADADE8C9A24
:100322008C808C8AD6DE8C9AC9DE8C908C8AD1DE47
:100332008C9A8C868C848C828C808C8ACADE8C9A75
:06034200BDDE2D8012005B
:10034800680E2E6E060E2F6E430E306E000E316E46
:10035800C26A161C006E0050C116070EC012C08E6D
:04036800C28012003D
:10036C000900F5CFE6FF0006FBE10106F9E11200FA
:10037C000B6A0A6A096A086A0E6A03340836045062
:10038C00085E0550D8A0053C095E0650D8A0063C76
:10039C000A5E0750D8A0073C0B5EE86AD8A0010E95
:1003AC000E5E0336070E0C6E0334083609360A3619
:1003BC000B360E36045003A012D0085E0550D8A0A0
:1003CC00053C095E0650D8A0063C0A5E0750D8A032
:1003DC00073C0B5EE86AD8A0010E0E5E11D0082611
:1003EC000550D8B0053C09260650D8B0063C0A2664
:1003FC000750D8B0073C0B26E86AD8B0010E0E2681
:10040C0003360C2ED1D70234083609360A360B3691
:10041C000E36045003A012D0085E0550D8A0053C3F
:10042C00095E0650D8A0063C0A5E0750D8A0073CCF
:10043C000B5EE86AD8A0010E0E5E11D0082605509E
:10044C00D8B0053C09260650D8B0063C0A26075001
:10045C00D8B0073C0B26E86AD8B0010E0E2602363F
:10046C00070E0C6E0234083609360A360B360E3679
:10047C00045002A012D0085E0550D8A0053C095EBD
:10048C000650D8A0063C0A5E0750D8A0073C0B5E6D
:10049C00E86AD8A0010E0E5E11D008260550D8B01F
:1004AC00053C09260650D8B0063C0A260750D8B0A1
:1004BC00073C0B26E86AD8B0010E0E2602360C2E2D
:1004CC00D1D70134083609360A360B360E360450AD
:1004DC0002A012D0085E0550D8A0053C095E06505B
:1004EC00D8A0063C0A5E0750D8A0073C0B5EE86A11
:1004FC00D8A0010E0E5E11D008260550D8B0053CD0
:10050C0009260650D8B0063C0A260750D8B0073C3E
:10051C000B26E86AD8B0010E0E260136070E0C6EBB
:10052C000134083609360A360B360E36045001A053
:10053C0012D0085E0550D8A0053C095E0650D8A024
:10054C00063C0A5E0750D8A0073C0B5EE86AD8A0B0
:10055C00010E0E5E11D008260550D8B0053C0926B8
:10056C000650D8B0063C0A260750D8B0073C0B26DC
:10057C00E86AD8B0010E0E2601360C2ED1D7003405
:10058C00083609360A360B360E36045001A012D046
:10059C00085E0550D8A0053C095E0650D8A0063C64
:1005AC000A5E0750D8A0073C0B5EE86AD8A0010E83
:1005BC000E5E11D008260550D8B0053C0926065011
:1005CC00D8B0063C0A260750D8B0073C0B26E86A80
:1005DC00D8B0010E0E260036070E0C6E003408360D
:1005EC0009360A360B360E36045000A012D0085EBF
:1005FC000550D8A0053C095E0650D8A0063C0A5E02
:10060C000750D8A0073C0B5EE86AD8A0010E0E5E1E
:10061C0011D008260550D8B0053C09260650D8B094
:10062C00063C0A260750D8B0073C0B26E86AD8B01F
:10063C00010E0E2600360C2ED1D700B00ED0045071
:10064C0008260550D8B0053C09260650D8B0063C03
:0C065C000A260750D8B0073C0B261200FD
:10066800830EC21643C000F000360090003600909A
:100678000050C2126CDDC282C2A201D0FDD7C4CF25
:0E06880001F0006AC3500012000E01121200B1
:10069600466A030E465C0AE246504424E16E000EAA
:1006A6004520E26E200EE66E462AF3D746504424D5
:1006B600E16E000E4520E26EE66A46064650442488
:1006C600476E000E4520486E0A0E046E43C000F0C9
:1006D6004BDD08C000F0300E002647C0E1FF48C0E1
:1006E600E2FF00C0E6FF0A0E046E43C000F03CDDE8
:1006F60000C043F00050000A01E102D04606DED7F2
:020706001200DF
:10070800D4EC04F0720ED36E9380938294908B9005
:10071800070EB46E92809284928612DE3B0EC16EF2
:10072800920EC06E060ED56EB00ECD6ED09EF28EB5
:10073800F28CF19CF19AF288F086F28A9D80F2920E
:10074800F090F2949E90020E0B6E040E0C6EBA0E90
:100758000D6E0D2EFED70C2EFCD70B2EFAD70000EF
:10076800A4DD010E4A6EB5DC0C0E4A6EB2DC1A0E20
:100778000C6EF80E0D6E0D2EFED70C2EFCD7000059
:10078800010E436E010E446E170E456E000E466E46
:100798004FDD010E436E0A0E446E2B0E456E000EA1
:1007A800466E46DD010E436E070E446E250E456EFD
:1007B800000E466E3DDD020E436E010E446E1F0EA6
:1007C800456E000E466E34DD2A50010A1DE12A6A84
:1007D80029C043F0320E446E000E456E58DF010EFC
:1007E800436E070E446E32C045F0F5DC010E436ED1
:1007F800080E446E33C045F0EEDC010E436E090E60
:10080800446E34C045F0E7DC436A2ADF000E026E0E
:10081800036EE80E046E030E056E000E066E000EE3
:10082800076EB0DCFF0E046E030E056E000E066E3A
:10083800000E076E9FDD00C03FF001C040F002C00F
:1008480041F003C042F03FC036F040C037F041C02D
:1008580038F042C039F00A0E046E000E056E066EBE
:10086800076E3FC000F040C001F041C002F042C036
:1008780003F080DD00C03BF001C03CF002C03DF059
:1008880003C03EF00A0E046E000E056E066E076E7B
:100898003FC000F040C001F041C002F042C003F088
:1008A80069DD08C000F009C001F00AC002F00BC001
:1008B80003F000C03AF03BC043F0320E446E000E25
:1008C800456EE5DE020E436E060E446E32C045F0FC
:1008D80082DC020E436E070E446E33C045F07BDCAB
:1008E800020E436E080E446E34C045F074DC020EEE
:1008F800436E090E446E2E0E456E6DDC020E436E7D
:100908000A0E446E300E3A24456E65DC020E436EC4
:100918000B0E446E200E456E5EDC020E436E0C0E0E
:10092800446EDF0E456E57DC020E436E0D0E446EAC
:10093800430E456E50DC000E395C08E1000E385C51
:1009480005E1020E375C02E1580E365C02E28B804C
:100958000DD03950000808E13850000805E137503B
:10096800030802E136502008D8A08B90030E0B6EC6
:10097800080E0C6E770E0D6E0D2EFED70C2EFCD7C2
:080988000B2EFAD721D7FFD78F
:1009A80010EE16F0170E006E010E016E900EF66E28
:0E09B800090EF76E000EF86EB6EC01F012009C
:010990003036
:0709910054656D706F3A0020
:01099800005E
:0609990054656D703A0088
:04099F0020203000E4
:0109A3000053
:0109A4000052
:0209A5007300DD
:020000040030CA
:0E00000001081F1EFF8381FF0FC00FE00F409D
:00000001FF
